{
  "_format": "hh-sol-artifact-1",
  "contractName": "GameContract",
  "sourceName": "contracts/GameContract.sol",
  "abi": [
    {
      "inputs": [
        {
          "internalType": "address",
          "name": "verifier_address",
          "type": "address"
        }
      ],
      "stateMutability": "nonpayable",
      "type": "constructor"
    },
    {
      "anonymous": false,
      "inputs": [
        {
          "indexed": false,
          "internalType": "uint64",
          "name": "previous_total_steps",
          "type": "uint64"
        },
        {
          "indexed": false,
          "internalType": "uint64",
          "name": "previous_position",
          "type": "uint64"
        },
        {
          "indexed": false,
          "internalType": "uint64",
          "name": "total_steps",
          "type": "uint64"
        },
        {
          "indexed": false,
          "internalType": "uint64",
          "name": "current_position",
          "type": "uint64"
        }
      ],
      "name": "UpdateState",
      "type": "event"
    },
    {
      "anonymous": false,
      "inputs": [
        {
          "indexed": true,
          "internalType": "address",
          "name": "sender",
          "type": "address"
        }
      ],
      "name": "VerificationSucceeded",
      "type": "event"
    },
    {
      "inputs": [
        {
          "internalType": "uint64",
          "name": "_total_steps",
          "type": "uint64"
        },
        {
          "internalType": "uint64",
          "name": "_current_position",
          "type": "uint64"
        }
      ],
      "name": "DEV_ONLY_setStates",
      "outputs": [],
      "stateMutability": "nonpayable",
      "type": "function"
    },
    {
      "inputs": [],
      "name": "current_position",
      "outputs": [
        {
          "internalType": "uint64",
          "name": "",
          "type": "uint64"
        }
      ],
      "stateMutability": "view",
      "type": "function"
    },
    {
      "inputs": [],
      "name": "getStates",
      "outputs": [
        {
          "internalType": "uint64",
          "name": "",
          "type": "uint64"
        },
        {
          "internalType": "uint64",
          "name": "",
          "type": "uint64"
        }
      ],
      "stateMutability": "view",
      "type": "function"
    },
    {
      "inputs": [],
      "name": "owner",
      "outputs": [
        {
          "internalType": "address",
          "name": "",
          "type": "address"
        }
      ],
      "stateMutability": "view",
      "type": "function"
    },
    {
      "inputs": [
        {
          "internalType": "address",
          "name": "new_owner",
          "type": "address"
        }
      ],
      "name": "setOwner",
      "outputs": [],
      "stateMutability": "nonpayable",
      "type": "function"
    },
    {
      "inputs": [
        {
          "internalType": "address",
          "name": "verifier_address",
          "type": "address"
        }
      ],
      "name": "setVerifier",
      "outputs": [],
      "stateMutability": "nonpayable",
      "type": "function"
    },
    {
      "inputs": [
        {
          "internalType": "uint256[3]",
          "name": "commitments",
          "type": "uint256[3]"
        }
      ],
      "name": "setVerifierImageCommitments",
      "outputs": [],
      "stateMutability": "nonpayable",
      "type": "function"
    },
    {
      "inputs": [
        {
          "internalType": "uint256[]",
          "name": "proof",
          "type": "uint256[]"
        },
        {
          "internalType": "uint256[]",
          "name": "verify_instance",
          "type": "uint256[]"
        },
        {
          "internalType": "uint256[]",
          "name": "aux",
          "type": "uint256[]"
        },
        {
          "internalType": "uint256[][]",
          "name": "instances",
          "type": "uint256[][]"
        }
      ],
      "name": "submitGame",
      "outputs": [],
      "stateMutability": "nonpayable",
      "type": "function"
    },
    {
      "inputs": [],
      "name": "total_steps",
      "outputs": [
        {
          "internalType": "uint64",
          "name": "",
          "type": "uint64"
        }
      ],
      "stateMutability": "view",
      "type": "function"
    },
    {
      "inputs": [],
      "name": "verifier",
      "outputs": [
        {
          "internalType": "address",
          "name": "",
          "type": "address"
        }
      ],
      "stateMutability": "view",
      "type": "function"
    },
    {
      "inputs": [
        {
          "internalType": "uint256",
          "name": "",
          "type": "uint256"
        }
      ],
      "name": "zk_image_commitments",
      "outputs": [
        {
          "internalType": "uint256",
          "name": "",
          "type": "uint256"
        }
      ],
      "stateMutability": "view",
      "type": "function"
    }
  ],
  "bytecode": "0x60806040523480156200001157600080fd5b50604051620017183803806200171883398181016040528101906200003791906200012b565b8033600160006101000a81548173ffffffffffffffffffffffffffffffffffffffff021916908373ffffffffffffffffffffffffffffffffffffffff160217905550806000806101000a81548173ffffffffffffffffffffffffffffffffffffffff021916908373ffffffffffffffffffffffffffffffffffffffff16021790555050506200015d565b600080fd5b600073ffffffffffffffffffffffffffffffffffffffff82169050919050565b6000620000f382620000c6565b9050919050565b6200010581620000e6565b81146200011157600080fd5b50565b6000815190506200012581620000fa565b92915050565b600060208284031215620001445762000143620000c1565b5b6000620001548482850162000114565b91505092915050565b6115ab806200016d6000396000f3fe608060405234801561001057600080fd5b50600436106100a95760003560e01c8063560bfc7e11610071578063560bfc7e146101405780638c1336ec1461015c5780638da5cb5b1461018c5780639347a330146101aa578063b6e9a4fd146101c6578063d8ab8274146101e2576100a9565b806313af4035146100ae5780632b7ac3f3146100ca5780634d56acd3146100e857806352de5f98146101065780635437988d14610124575b600080fd5b6100c860048036038101906100c39190610c1b565b610201565b005b6100d26102d5565b6040516100df9190610c57565b60405180910390f35b6100f06102f9565b6040516100fd9190610c95565b60405180910390f35b61010e610313565b60405161011b9190610c95565b60405180910390f35b61013e60048036038101906101399190610c1b565b61032d565b005b61015a60048036038101906101559190610cd7565b610400565b005b61017660048036038101906101719190610d3a565b61052b565b6040516101839190610d76565b60405180910390f35b610194610546565b6040516101a19190610c57565b60405180910390f35b6101c460048036038101906101bf9190610e47565b610570565b005b6101e060048036038101906101db9190610f5c565b610594565b005b6101ea61067a565b6040516101f8929190610f9c565b60405180910390f35b600160009054906101000a900473ffffffffffffffffffffffffffffffffffffffff1673ffffffffffffffffffffffffffffffffffffffff163373ffffffffffffffffffffffffffffffffffffffff1614610291576040517f08c379a000000000000000000000000000000000000000000000000000000000815260040161028890611048565b60405180910390fd5b80600160006101000a81548173ffffffffffffffffffffffffffffffffffffffff021916908373ffffffffffffffffffffffffffffffffffffffff16021790555050565b60008054906101000a900473ffffffffffffffffffffffffffffffffffffffff1681565b600560089054906101000a900467ffffffffffffffff1681565b600560009054906101000a900467ffffffffffffffff1681565b600160009054906101000a900473ffffffffffffffffffffffffffffffffffffffff1673ffffffffffffffffffffffffffffffffffffffff163373ffffffffffffffffffffffffffffffffffffffff16146103bd576040517f08c379a00000000000000000000000000000000000000000000000000000000081526004016103b490611048565b60405180910390fd5b806000806101000a81548173ffffffffffffffffffffffffffffffffffffffff021916908373ffffffffffffffffffffffffffffffffffffffff16021790555050565b600160009054906101000a900473ffffffffffffffffffffffffffffffffffffffff1673ffffffffffffffffffffffffffffffffffffffff163373ffffffffffffffffffffffffffffffffffffffff1614610490576040517f08c379a000000000000000000000000000000000000000000000000000000000815260040161048790611048565b60405180910390fd5b806000600381106104a4576104a3611068565b5b602002013560026000600381106104be576104bd611068565b5b0181905550806001600381106104d7576104d6611068565b5b602002013560026001600381106104f1576104f0611068565b5b01819055508060026003811061050a57610509611068565b5b60200201356002806003811061052357610522611068565b5b018190555050565b6002816003811061053b57600080fd5b016000915090505481565b6000600160009054906101000a900473ffffffffffffffffffffffffffffffffffffffff16905090565b61058088888888888888886106b3565b61058a828261090b565b5050505050505050565b600160009054906101000a900473ffffffffffffffffffffffffffffffffffffffff1673ffffffffffffffffffffffffffffffffffffffff163373ffffffffffffffffffffffffffffffffffffffff1614610624576040517f08c379a000000000000000000000000000000000000000000000000000000000815260040161061b90611048565b60405180910390fd5b81600560006101000a81548167ffffffffffffffff021916908367ffffffffffffffff16021790555080600560086101000a81548167ffffffffffffffff021916908367ffffffffffffffff1602179055505050565b600080600560009054906101000a900467ffffffffffffffff16600560089054906101000a900467ffffffffffffffff16915091509091565b600060026000600381106106ca576106c9611068565b5b0154146108275760026000600381106106e6576106e5611068565b5b0154868660018181106106fc576106fb611068565b5b9050602002013514610743576040517f08c379a000000000000000000000000000000000000000000000000000000000815260040161073a906110e3565b60405180910390fd5b600260016003811061075857610757611068565b5b01548686600281811061076e5761076d611068565b5b90506020020135146107b5576040517f08c379a00000000000000000000000000000000000000000000000000000000081526004016107ac9061114f565b60405180910390fd5b600280600381106107c9576107c8611068565b5b0154868660038181106107df576107de611068565b5b9050602002013514610826576040517f08c379a000000000000000000000000000000000000000000000000000000000815260040161081d906111bb565b60405180910390fd5b5b60008054906101000a900473ffffffffffffffffffffffffffffffffffffffff1673ffffffffffffffffffffffffffffffffffffffff1663ae022ccd89898989898989896040518963ffffffff1660e01b815260040161088e9897969594939291906113e9565b60006040518083038186803b1580156108a657600080fd5b505afa1580156108ba573d6000803e3d6000fd5b505050503373ffffffffffffffffffffffffffffffffffffffff167f9508ee0b8ce58138ead5f169fde353bda2e3991ea16a8aa21e626fb211a3f2ef60405160405180910390a25050505050505050565b600060405180604001604052808484600081811061092c5761092b611068565b5b905060200281019061093e9190611461565b60008181106109505761094f611068565b5b9050602002013567ffffffffffffffff1681526020018484600081811061097a57610979611068565b5b905060200281019061098c9190611461565b600181811061099e5761099d611068565b5b9050602002013567ffffffffffffffff16815250905060006040518060400160405280858560008181106109d5576109d4611068565b5b90506020028101906109e79190611461565b60028181106109f9576109f8611068565b5b9050602002013567ffffffffffffffff16815260200185856000818110610a2357610a22611068565b5b9050602002810190610a359190611461565b6003818110610a4757610a46611068565b5b9050602002013567ffffffffffffffff168152509050600560009054906101000a900467ffffffffffffffff1667ffffffffffffffff16826000015167ffffffffffffffff16148015610ac75750600560089054906101000a900467ffffffffffffffff1667ffffffffffffffff16826020015167ffffffffffffffff16145b610b06576040517f08c379a0000000000000000000000000000000000000000000000000000000008152600401610afd90611510565b60405180910390fd5b8060000151600560006101000a81548167ffffffffffffffff021916908367ffffffffffffffff1602179055508060200151600560086101000a81548167ffffffffffffffff021916908367ffffffffffffffff1602179055507f7aee085ce8e2eda4fac2a988081f6a26fe0adeca01c75bde1c5dbc3ca91063de8260000151836020015183600001518460200151604051610ba59493929190611530565b60405180910390a150505050565b600080fd5b600080fd5b600073ffffffffffffffffffffffffffffffffffffffff82169050919050565b6000610be882610bbd565b9050919050565b610bf881610bdd565b8114610c0357600080fd5b50565b600081359050610c1581610bef565b92915050565b600060208284031215610c3157610c30610bb3565b5b6000610c3f84828501610c06565b91505092915050565b610c5181610bdd565b82525050565b6000602082019050610c6c6000830184610c48565b92915050565b600067ffffffffffffffff82169050919050565b610c8f81610c72565b82525050565b6000602082019050610caa6000830184610c86565b92915050565b600080fd5b600081905082602060030282011115610cd157610cd0610cb0565b5b92915050565b600060608284031215610ced57610cec610bb3565b5b6000610cfb84828501610cb5565b91505092915050565b6000819050919050565b610d1781610d04565b8114610d2257600080fd5b50565b600081359050610d3481610d0e565b92915050565b600060208284031215610d5057610d4f610bb3565b5b6000610d5e84828501610d25565b91505092915050565b610d7081610d04565b82525050565b6000602082019050610d8b6000830184610d67565b92915050565b600080fd5b600080fd5b60008083601f840112610db157610db0610d91565b5b8235905067ffffffffffffffff811115610dce57610dcd610d96565b5b602083019150836020820283011115610dea57610de9610cb0565b5b9250929050565b60008083601f840112610e0757610e06610d91565b5b8235905067ffffffffffffffff811115610e2457610e23610d96565b5b602083019150836020820283011115610e4057610e3f610cb0565b5b9250929050565b6000806000806000806000806080898b031215610e6757610e66610bb3565b5b600089013567ffffffffffffffff811115610e8557610e84610bb8565b5b610e918b828c01610d9b565b9850985050602089013567ffffffffffffffff811115610eb457610eb3610bb8565b5b610ec08b828c01610d9b565b9650965050604089013567ffffffffffffffff811115610ee357610ee2610bb8565b5b610eef8b828c01610d9b565b9450945050606089013567ffffffffffffffff811115610f1257610f11610bb8565b5b610f1e8b828c01610df1565b92509250509295985092959890939650565b610f3981610c72565b8114610f4457600080fd5b50565b600081359050610f5681610f30565b92915050565b60008060408385031215610f7357610f72610bb3565b5b6000610f8185828601610f47565b9250506020610f9285828601610f47565b9150509250929050565b6000604082019050610fb16000830185610c86565b610fbe6020830184610c86565b9392505050565b600082825260208201905092915050565b7f4f6e6c79206f776e65722063616e2063616c6c20746869732066756e6374696f60008201527f6e00000000000000000000000000000000000000000000000000000000000000602082015250565b6000611032602183610fc5565b915061103d82610fd6565b604082019050919050565b6000602082019050818103600083015261106181611025565b9050919050565b7f4e487b7100000000000000000000000000000000000000000000000000000000600052603260045260246000fd5b7f496e76616c696420696d61676520636f6d6d69746d656e742030000000000000600082015250565b60006110cd601a83610fc5565b91506110d882611097565b602082019050919050565b600060208201905081810360008301526110fc816110c0565b9050919050565b7f496e76616c696420696d61676520636f6d6d69746d656e742031000000000000600082015250565b6000611139601a83610fc5565b915061114482611103565b602082019050919050565b600060208201905081810360008301526111688161112c565b9050919050565b7f496e76616c696420696d61676520636f6d6d69746d656e742032000000000000600082015250565b60006111a5601a83610fc5565b91506111b08261116f565b602082019050919050565b600060208201905081810360008301526111d481611198565b9050919050565b600082825260208201905092915050565b600080fd5b82818337505050565b600061120683856111db565b93507f07ffffffffffffffffffffffffffffffffffffffffffffffffffffffffffffff831115611239576112386111ec565b5b60208302925061124a8385846111f1565b82840190509392505050565b600082825260208201905092915050565b6000819050919050565b600082825260208201905092915050565b600061128e8385611271565b93507f07ffffffffffffffffffffffffffffffffffffffffffffffffffffffffffffff8311156112c1576112c06111ec565b5b6020830292506112d28385846111f1565b82840190509392505050565b60006112eb848484611282565b90509392505050565b600080fd5b600080fd5b600080fd5b600080833560016020038436030381126113205761131f6112fe565b5b83810192508235915060208301925067ffffffffffffffff821115611348576113476112f4565b5b60208202360383131561135e5761135d6112f9565b5b509250929050565b6000602082019050919050565b600061137f8385611256565b93508360208402850161139184611267565b8060005b878110156113d75784840389526113ac8284611303565b6113b78682846112de565b95506113c284611366565b935060208b019a505050600181019050611395565b50829750879450505050509392505050565b60006080820190508181036000830152611404818a8c6111fa565b9050818103602083015261141981888a6111fa565b9050818103604083015261142e8186886111fa565b90508181036060830152611443818486611373565b90509998505050505050505050565b600080fd5b600080fd5b600080fd5b6000808335600160200384360303811261147e5761147d611452565b5b80840192508235915067ffffffffffffffff8211156114a05761149f611457565b5b6020830192506020820236038313156114bc576114bb61145c565b5b509250929050565b7f496e76616c696420737461727420737461746500000000000000000000000000600082015250565b60006114fa601383610fc5565b9150611505826114c4565b602082019050919050565b60006020820190508181036000830152611529816114ed565b9050919050565b60006080820190506115456000830187610c86565b6115526020830186610c86565b61155f6040830185610c86565b61156c6060830184610c86565b9594505050505056fea26469706673582212208ea511198c6ec4abb4814f7aff718b4f7f8b5a21f116817e0d00a807ac7f4eb064736f6c63430008180033",
  "linkReferences": {},
  "deployedLinkReferences": {}
}